{"contracts/EHRRegistry.sol":{"EHRRegistry":{"abi":[{"anonymous":false,"inputs":[{"indexed":false,"internalType":"string","name":"reqId","type":"string"},{"indexed":false,"internalType":"string","name":"ehrId","type":"string"},{"indexed":false,"internalType":"string","name":"approverId","type":"string"}],"name":"AccessApproved","type":"event"},{"anonymous":false,"inputs":[{"indexed":false,"internalType":"string","name":"reqId","type":"string"},{"indexed":false,"internalType":"string","name":"ehrId","type":"string"},{"indexed":false,"internalType":"string","name":"requesterId","type":"string"}],"name":"AccessRequested","type":"event"},{"anonymous":false,"inputs":[{"indexed":false,"internalType":"string","name":"reqId","type":"string"},{"indexed":false,"internalType":"string","name":"ehrId","type":"string"},{"indexed":false,"internalType":"string","name":"revokerId","type":"string"}],"name":"AccessRevoked","type":"event"},{"anonymous":false,"inputs":[{"indexed":false,"internalType":"string","name":"ehrId","type":"string"},{"indexed":false,"internalType":"string","name":"ownerId","type":"string"},{"indexed":false,"internalType":"string","name":"cid","type":"string"}],"name":"EHRUploaded","type":"event"},{"anonymous":false,"inputs":[{"indexed":false,"internalType":"string","name":"userId","type":"string"},{"indexed":false,"internalType":"string","name":"role","type":"string"},{"indexed":false,"internalType":"string","name":"metadata","type":"string"}],"name":"UserRegistered","type":"event"},{"inputs":[{"internalType":"string","name":"reqId","type":"string"},{"internalType":"string","name":"ehrId","type":"string"},{"internalType":"string","name":"approverId","type":"string"}],"name":"approveAccess","outputs":[],"stateMutability":"nonpayable","type":"function"},{"inputs":[{"internalType":"string","name":"userId","type":"string"},{"internalType":"string","name":"role","type":"string"},{"internalType":"string","name":"metadata","type":"string"}],"name":"registerUser","outputs":[],"stateMutability":"nonpayable","type":"function"},{"inputs":[{"internalType":"string","name":"reqId","type":"string"},{"internalType":"string","name":"ehrId","type":"string"},{"internalType":"string","name":"requesterId","type":"string"}],"name":"requestAccess","outputs":[],"stateMutability":"nonpayable","type":"function"},{"inputs":[{"internalType":"string","name":"reqId","type":"string"},{"internalType":"string","name":"ehrId","type":"string"},{"internalType":"string","name":"revokerId","type":"string"}],"name":"revokeAccess","outputs":[],"stateMutability":"nonpayable","type":"function"},{"inputs":[{"internalType":"string","name":"ehrId","type":"string"},{"internalType":"string","name":"ownerId","type":"string"},{"internalType":"string","name":"cid","type":"string"}],"name":"uploadEHR","outputs":[],"stateMutability":"nonpayable","type":"function"}],"evm":{"bytecode":{"linkReferences":{},"object":"608060405234801561001057600080fd5b5061045e806100206000396000f3fe608060405234801561001057600080fd5b50600436106100575760003560e01c806363531f921461005c5780637ddf704714610078578063cef482c214610094578063d637dcfa146100b0578063db6a88ec146100cc575b600080fd5b610076600480360381019061007191906102c4565b6100e8565b005b610092600480360381019061008d91906102c4565b610131565b005b6100ae60048036038101906100a991906102c4565b61017a565b005b6100ca60048036038101906100c591906102c4565b6101c3565b005b6100e660048036038101906100e191906102c4565b61020c565b005b7ff96096debaf1fed2c692cbe40c7cc3b82f21371088c811c3b2488bf44b479070868686868686604051610121969594939291906103d6565b60405180910390a1505050505050565b7f76a0311a8ee1f64247603fc02ac075d1c622aa7c6005c1833d4c2ec85a35e49e86868686868660405161016a969594939291906103d6565b60405180910390a1505050505050565b7f45014b8f8bc3f4a2005d3444e803e0f7ff77e97d408014c5e63540097b8b125f8686868686866040516101b3969594939291906103d6565b60405180910390a1505050505050565b7f0a012201ed6ad03a46b4a2be566d40057141543493eb16b35966ad83539abe4f8686868686866040516101fc969594939291906103d6565b60405180910390a1505050505050565b7fe65933210f5b388f8c5d89f0a237a049bbed2ca79177f962e691ae7fa7ef35a5868686868686604051610245969594939291906103d6565b60405180910390a1505050505050565b600080fd5b600080fd5b600080fd5b600080fd5b600080fd5b60008083601f8401126102845761028361025f565b5b8235905067ffffffffffffffff8111156102a1576102a0610264565b5b6020830191508360018202830111156102bd576102bc610269565b5b9250929050565b600080600080600080606087890312156102e1576102e0610255565b5b600087013567ffffffffffffffff8111156102ff576102fe61025a565b5b61030b89828a0161026e565b9650965050602087013567ffffffffffffffff81111561032e5761032d61025a565b5b61033a89828a0161026e565b9450945050604087013567ffffffffffffffff81111561035d5761035c61025a565b5b61036989828a0161026e565b92509250509295509295509295565b600082825260208201905092915050565b82818337600083830152505050565b6000601f19601f8301169050919050565b60006103b58385610378565b93506103c2838584610389565b6103cb83610398565b840190509392505050565b600060608201905081810360008301526103f181888a6103a9565b905081810360208301526104068186886103a9565b9050818103604083015261041b8184866103a9565b905097965050505050505056fea26469706673582212206183305450c67410bb64e6bd6bf6d7cc715b4fe495f6734d2aaa59b2117441c764736f6c63430008130033","opcodes":"PUSH1 0x80 PUSH1 0x40 MSTORE CALLVALUE DUP1 ISZERO PUSH2 0x10 JUMPI PUSH1 0x0 DUP1 REVERT JUMPDEST POP PUSH2 0x45E DUP1 PUSH2 0x20 PUSH1 0x0 CODECOPY PUSH1 0x0 RETURN INVALID PUSH1 0x80 PUSH1 0x40 MSTORE CALLVALUE DUP1 ISZERO PUSH2 0x10 JUMPI PUSH1 0x0 DUP1 REVERT JUMPDEST POP PUSH1 0x4 CALLDATASIZE LT PUSH2 0x57 JUMPI PUSH1 0x0 CALLDATALOAD PUSH1 0xE0 SHR DUP1 PUSH4 0x63531F92 EQ PUSH2 0x5C JUMPI DUP1 PUSH4 0x7DDF7047 EQ PUSH2 0x78 JUMPI DUP1 PUSH4 0xCEF482C2 EQ PUSH2 0x94 JUMPI DUP1 PUSH4 0xD637DCFA EQ PUSH2 0xB0 JUMPI DUP1 PUSH4 0xDB6A88EC EQ PUSH2 0xCC JUMPI JUMPDEST PUSH1 0x0 DUP1 REVERT JUMPDEST PUSH2 0x76 PUSH1 0x4 DUP1 CALLDATASIZE SUB DUP2 ADD SWAP1 PUSH2 0x71 SWAP2 SWAP1 PUSH2 0x2C4 JUMP JUMPDEST PUSH2 0xE8 JUMP JUMPDEST STOP JUMPDEST PUSH2 0x92 PUSH1 0x4 DUP1 CALLDATASIZE SUB DUP2 ADD SWAP1 PUSH2 0x8D SWAP2 SWAP1 PUSH2 0x2C4 JUMP JUMPDEST PUSH2 0x131 JUMP JUMPDEST STOP JUMPDEST PUSH2 0xAE PUSH1 0x4 DUP1 CALLDATASIZE SUB DUP2 ADD SWAP1 PUSH2 0xA9 SWAP2 SWAP1 PUSH2 0x2C4 JUMP JUMPDEST PUSH2 0x17A JUMP JUMPDEST STOP JUMPDEST PUSH2 0xCA PUSH1 0x4 DUP1 CALLDATASIZE SUB DUP2 ADD SWAP1 PUSH2 0xC5 SWAP2 SWAP1 PUSH2 0x2C4 JUMP JUMPDEST PUSH2 0x1C3 JUMP JUMPDEST STOP JUMPDEST PUSH2 0xE6 PUSH1 0x4 DUP1 CALLDATASIZE SUB DUP2 ADD SWAP1 PUSH2 0xE1 SWAP2 SWAP1 PUSH2 0x2C4 JUMP JUMPDEST PUSH2 0x20C JUMP JUMPDEST STOP JUMPDEST PUSH32 0xF96096DEBAF1FED2C692CBE40C7CC3B82F21371088C811C3B2488BF44B479070 DUP7 DUP7 DUP7 DUP7 DUP7 DUP7 PUSH1 0x40 MLOAD PUSH2 0x121 SWAP7 SWAP6 SWAP5 SWAP4 SWAP3 SWAP2 SWAP1 PUSH2 0x3D6 JUMP JUMPDEST PUSH1 0x40 MLOAD DUP1 SWAP2 SUB SWAP1 LOG1 POP POP POP POP POP POP JUMP JUMPDEST PUSH32 0x76A0311A8EE1F64247603FC02AC075D1C622AA7C6005C1833D4C2EC85A35E49E DUP7 DUP7 DUP7 DUP7 DUP7 DUP7 PUSH1 0x40 MLOAD PUSH2 0x16A SWAP7 SWAP6 SWAP5 SWAP4 SWAP3 SWAP2 SWAP1 PUSH2 0x3D6 JUMP JUMPDEST PUSH1 0x40 MLOAD DUP1 SWAP2 SUB SWAP1 LOG1 POP POP POP POP POP POP JUMP JUMPDEST PUSH32 0x45014B8F8BC3F4A2005D3444E803E0F7FF77E97D408014C5E63540097B8B125F DUP7 DUP7 DUP7 DUP7 DUP7 DUP7 PUSH1 0x40 MLOAD PUSH2 0x1B3 SWAP7 SWAP6 SWAP5 SWAP4 SWAP3 SWAP2 SWAP1 PUSH2 0x3D6 JUMP JUMPDEST PUSH1 0x40 MLOAD DUP1 SWAP2 SUB SWAP1 LOG1 POP POP POP POP POP POP JUMP JUMPDEST PUSH32 0xA012201ED6AD03A46B4A2BE566D40057141543493EB16B35966AD83539ABE4F DUP7 DUP7 DUP7 DUP7 DUP7 DUP7 PUSH1 0x40 MLOAD PUSH2 0x1FC SWAP7 SWAP6 SWAP5 SWAP4 SWAP3 SWAP2 SWAP1 PUSH2 0x3D6 JUMP JUMPDEST PUSH1 0x40 MLOAD DUP1 SWAP2 SUB SWAP1 LOG1 POP POP POP POP POP POP JUMP JUMPDEST PUSH32 0xE65933210F5B388F8C5D89F0A237A049BBED2CA79177F962E691AE7FA7EF35A5 DUP7 DUP7 DUP7 DUP7 DUP7 DUP7 PUSH1 0x40 MLOAD PUSH2 0x245 SWAP7 SWAP6 SWAP5 SWAP4 SWAP3 SWAP2 SWAP1 PUSH2 0x3D6 JUMP JUMPDEST PUSH1 0x40 MLOAD DUP1 SWAP2 SUB SWAP1 LOG1 POP POP POP POP POP POP JUMP JUMPDEST PUSH1 0x0 DUP1 REVERT JUMPDEST PUSH1 0x0 DUP1 REVERT JUMPDEST PUSH1 0x0 DUP1 REVERT JUMPDEST PUSH1 0x0 DUP1 REVERT JUMPDEST PUSH1 0x0 DUP1 REVERT JUMPDEST PUSH1 0x0 DUP1 DUP4 PUSH1 0x1F DUP5 ADD SLT PUSH2 0x284 JUMPI PUSH2 0x283 PUSH2 0x25F JUMP JUMPDEST JUMPDEST DUP3 CALLDATALOAD SWAP1 POP PUSH8 0xFFFFFFFFFFFFFFFF DUP2 GT ISZERO PUSH2 0x2A1 JUMPI PUSH2 0x2A0 PUSH2 0x264 JUMP JUMPDEST JUMPDEST PUSH1 0x20 DUP4 ADD SWAP2 POP DUP4 PUSH1 0x1 DUP3 MUL DUP4 ADD GT ISZERO PUSH2 0x2BD JUMPI PUSH2 0x2BC PUSH2 0x269 JUMP JUMPDEST JUMPDEST SWAP3 POP SWAP3 SWAP1 POP JUMP JUMPDEST PUSH1 0x0 DUP1 PUSH1 0x0 DUP1 PUSH1 0x0 DUP1 PUSH1 0x60 DUP8 DUP10 SUB SLT ISZERO PUSH2 0x2E1 JUMPI PUSH2 0x2E0 PUSH2 0x255 JUMP JUMPDEST JUMPDEST PUSH1 0x0 DUP8 ADD CALLDATALOAD PUSH8 0xFFFFFFFFFFFFFFFF DUP2 GT ISZERO PUSH2 0x2FF JUMPI PUSH2 0x2FE PUSH2 0x25A JUMP JUMPDEST JUMPDEST PUSH2 0x30B DUP10 DUP3 DUP11 ADD PUSH2 0x26E JUMP JUMPDEST SWAP7 POP SWAP7 POP POP PUSH1 0x20 DUP8 ADD CALLDATALOAD PUSH8 0xFFFFFFFFFFFFFFFF DUP2 GT ISZERO PUSH2 0x32E JUMPI PUSH2 0x32D PUSH2 0x25A JUMP JUMPDEST JUMPDEST PUSH2 0x33A DUP10 DUP3 DUP11 ADD PUSH2 0x26E JUMP JUMPDEST SWAP5 POP SWAP5 POP POP PUSH1 0x40 DUP8 ADD CALLDATALOAD PUSH8 0xFFFFFFFFFFFFFFFF DUP2 GT ISZERO PUSH2 0x35D JUMPI PUSH2 0x35C PUSH2 0x25A JUMP JUMPDEST JUMPDEST PUSH2 0x369 DUP10 DUP3 DUP11 ADD PUSH2 0x26E JUMP JUMPDEST SWAP3 POP SWAP3 POP POP SWAP3 SWAP6 POP SWAP3 SWAP6 POP SWAP3 SWAP6 JUMP JUMPDEST PUSH1 0x0 DUP3 DUP3 MSTORE PUSH1 0x20 DUP3 ADD SWAP1 POP SWAP3 SWAP2 POP POP JUMP JUMPDEST DUP3 DUP2 DUP4 CALLDATACOPY PUSH1 0x0 DUP4 DUP4 ADD MSTORE POP POP POP JUMP JUMPDEST PUSH1 0x0 PUSH1 0x1F NOT PUSH1 0x1F DUP4 ADD AND SWAP1 POP SWAP2 SWAP1 POP JUMP JUMPDEST PUSH1 0x0 PUSH2 0x3B5 DUP4 DUP6 PUSH2 0x378 JUMP JUMPDEST SWAP4 POP PUSH2 0x3C2 DUP4 DUP6 DUP5 PUSH2 0x389 JUMP JUMPDEST PUSH2 0x3CB DUP4 PUSH2 0x398 JUMP JUMPDEST DUP5 ADD SWAP1 POP SWAP4 SWAP3 POP POP POP JUMP JUMPDEST PUSH1 0x0 PUSH1 0x60 DUP3 ADD SWAP1 POP DUP2 DUP2 SUB PUSH1 0x0 DUP4 ADD MSTORE PUSH2 0x3F1 DUP2 DUP9 DUP11 PUSH2 0x3A9 JUMP JUMPDEST SWAP1 POP DUP2 DUP2 SUB PUSH1 0x20 DUP4 ADD MSTORE PUSH2 0x406 DUP2 DUP7 DUP9 PUSH2 0x3A9 JUMP JUMPDEST SWAP1 POP DUP2 DUP2 SUB PUSH1 0x40 DUP4 ADD MSTORE PUSH2 0x41B DUP2 DUP5 DUP7 PUSH2 0x3A9 JUMP JUMPDEST SWAP1 POP SWAP8 SWAP7 POP POP POP POP POP POP POP JUMP INVALID LOG2 PUSH5 0x6970667358 0x22 SLT KECCAK256 PUSH2 0x8330 SLOAD POP 0xC6 PUSH21 0x10BB64E6BD6BF6D7CC715B4FE495F6734D2AAA59B2 GT PUSH21 0x41C764736F6C634300081300330000000000000000 "},"methodIdentifiers":{"approveAccess(string,string,string)":"7ddf7047","registerUser(string,string,string)":"d637dcfa","requestAccess(string,string,string)":"db6a88ec","revokeAccess(string,string,string)":"cef482c2","uploadEHR(string,string,string)":"63531f92"}}}}}